{
  "contractName": "CareRecord",
  "abi": [
    {
      "constant": true,
      "inputs": [
        {
          "name": "",
          "type": "uint64"
        }
      ],
      "name": "patients",
      "outputs": [
        {
          "name": "uid",
          "type": "uint64"
        },
        {
          "name": "birthdate",
          "type": "string"
        },
        {
          "name": "height",
          "type": "uint16"
        },
        {
          "name": "weight",
          "type": "uint16"
        },
        {
          "name": "btype",
          "type": "string"
        }
      ],
      "payable": false,
      "stateMutability": "view",
      "type": "function"
    },
    {
      "constant": false,
      "inputs": [
        {
          "name": "uid",
          "type": "uint64"
        }
      ],
      "name": "createPatient",
      "outputs": [
        {
          "name": "",
          "type": "bool"
        }
      ],
      "payable": false,
      "stateMutability": "nonpayable",
      "type": "function"
    },
    {
      "constant": true,
      "inputs": [
        {
          "name": "",
          "type": "uint256"
        }
      ],
      "name": "records",
      "outputs": [
        {
          "name": "uid",
          "type": "uint64"
        },
        {
          "name": "datetime",
          "type": "string"
        },
        {
          "name": "disease",
          "type": "string"
        }
      ],
      "payable": false,
      "stateMutability": "view",
      "type": "function"
    },
    {
      "constant": true,
      "inputs": [
        {
          "name": "uid",
          "type": "uint64"
        },
        {
          "name": "birthdate",
          "type": "string"
        },
        {
          "name": "height",
          "type": "uint16"
        },
        {
          "name": "weight",
          "type": "uint16"
        },
        {
          "name": "btype",
          "type": "string"
        }
      ],
      "name": "getrecords",
      "outputs": [
        {
          "name": "",
          "type": "uint128[]",
          "components": [
            {
              "name": "uid",
              "type": "uint64"
            },
            {
              "name": "datetime",
              "type": "string"
            },
            {
              "name": "disease",
              "type": "string"
            }
          ]
        }
      ],
      "payable": false,
      "stateMutability": "view",
      "type": "function"
    },
    {
      "constant": true,
      "inputs": [
        {
          "name": "rid",
          "type": "uint128"
        },
        {
          "name": "birthdate",
          "type": "string"
        },
        {
          "name": "height",
          "type": "uint16"
        },
        {
          "name": "weight",
          "type": "uint16"
        },
        {
          "name": "btype",
          "type": "string"
        }
      ],
      "name": "getrecords",
      "outputs": [
        {
          "components": [
            {
              "name": "uid",
              "type": "uint64"
            },
            {
              "name": "datetime",
              "type": "string"
            },
            {
              "name": "disease",
              "type": "string"
            },
            {
              "name": "weight",
              "type": "uint16"
            },
            {
              "name": "btype",
              "type": "string"
            },
            {
              "name": "recindex",
              "type": "uint128[]"
            }
          ],
          "name": "",
          "type": "tuple"
        }
      ],
      "payable": false,
      "stateMutability": "view",
      "type": "function"
    },
    {
      "constant": false,
      "inputs": [
        {
          "name": "uid",
          "type": "uint64"
        },
        {
          "name": "birthdate",
          "type": "string"
        },
        {
          "name": "height",
          "type": "uint16"
        },
        {
          "name": "weight",
          "type": "uint16"
        },
        {
          "name": "btype",
          "type": "string"
        }
      ],
      "name": "updatePatient",
      "outputs": [
        {
          "name": "",
          "type": "bool",
          "components": [
            {
              "name": "uid",
              "type": "uint64"
            },
            {
              "name": "birthdate",
              "type": "string"
            },
            {
              "name": "height",
              "type": "uint16"
            },
            {
              "name": "weight",
              "type": "uint16"
            },
            {
              "name": "btype",
              "type": "string"
            },
            {
              "name": "recindex",
              "type": "uint128[]"
            }
          ]
        }
      ],
      "payable": false,
      "stateMutability": "nonpayable",
      "type": "function"
    },
    {
      "inputs": [
        {
          "name": "uid",
          "type": "uint64"
        },
        {
          "name": "rid",
          "type": "uint64"
        },
        {
          "name": "datetime",
          "type": "string"
        },
        {
          "name": "disease",
          "type": "string"
        }
      ],
      "payable": false,
      "stateMutability": "view",
      "type": "function",
      "constant": true,
      "name": "getpatient",
      "outputs": [
        {
          "name": "",
          "type": "tuple",
          "components": [
            {
              "name": "uid",
              "type": "uint64"
            },
            {
              "name": "birthdate",
              "type": "string"
            },
            {
              "name": "height",
              "type": "uint16"
            },
            {
              "name": "weight",
              "type": "uint16"
            },
            {
              "name": "btype",
              "type": "string"
            },
            {
              "name": "recindex",
              "type": "uint128[]"
            }
          ]
        }
      ]
    },
    {
      "inputs": [
        {
          "name": "uid",
          "type": "uint64"
        },
        {
          "name": "rid",
          "type": "uint64"
        },
        {
          "name": "datetime",
          "type": "string"
        },
        {
          "name": "disease",
          "type": "string"
        }
      ],
      "payable": false,
      "stateMutability": "nonpayable",
      "type": "function",
      "constant": false,
      "name": "createRecord",
      "outputs": [
        {
          "name": "",
          "type": "bool"
        }
      ]
    },
    {
      "inputs": [
        {
          "name": "_greeting",
          "type": "string"
        }
      ],
      "payable": false,
      "stateMutability": "nonpayable",
      "type": "constructor"
    }
  ],
  "bytecode": "0x6060604052341561000f57600080fd5b6040516110ea3803806110ea83398101604052808051820191905050506110af8061003b6000396000f30060606040526004361061008e576000357c0100000000000000000000000000000000000000000000000000000000900463ffffffff1680630acb6b541461009357806317728c0614610218578063344610671461025d578063429081bb146103ba57806359fb25a71461043c5780636d834c67146104855780639aef78e71461056a578063ccbf513b146105ab575b600080fd5b341561009e57600080fd5b6100be600480803567ffffffffffffffff16906020019091905050610689565b604051808667ffffffffffffffff1667ffffffffffffffff168152602001806020018561ffff1661ffff1681526020018461ffff1661ffff168152602001806020018381038352878181546001816001161561010002031660029004815260200191508054600181600116156101000203166002900480156101815780601f1061015657610100808354040283529160200191610181565b820191906000526020600020905b81548152906001019060200180831161016457829003601f168201915b50508381038252848181546001816001161561010002031660029004815260200191508054600181600116156101000203166002900480156102045780601f106101d957610100808354040283529160200191610204565b820191906000526020600020905b8154815290600101906020018083116101e757829003601f168201915b505097505050505050505060405180910390f35b341561022357600080fd5b610243600480803567ffffffffffffffff169060200190919050506106ed565b604051808215151515815260200191505060405180910390f35b341561026857600080fd5b61027e6004808035906020019091905050610749565b604051808467ffffffffffffffff1667ffffffffffffffff16815260200180602001806020018381038352858181546001816001161561010002031660029004815260200191508054600181600116156101000203166002900480156103255780601f106102fa57610100808354040283529160200191610325565b820191906000526020600020905b81548152906001019060200180831161030857829003601f168201915b50508381038252848181546001816001161561010002031660029004815260200191508054600181600116156101000203166002900480156103a85780601f1061037d576101008083540402835291602001916103a8565b820191906000526020600020905b81548152906001019060200180831161038b57829003601f168201915b50509550505050505060405180910390f35b34156103c557600080fd5b6103e5600480803567ffffffffffffffff16906020019091905050610785565b6040518080602001828103825283818151815260200191508051906020019060200280838360005b8381101561042857808201518184015260208101905061040d565b505050509050019250505060405180910390f35b341561044757600080fd5b61046f60048080356fffffffffffffffffffffffffffffffff16906020019091905050610851565b6040518082815260200191505060405180910390f35b341561049057600080fd5b610550600480803567ffffffffffffffff1690602001909190803590602001908201803590602001908080601f0160208091040260200160405190810160405280939291908181526020018383808284378201915050505050509190803561ffff1690602001909190803561ffff1690602001909190803590602001908201803590602001908080601f01602080910402602001604051908101604052809392919081815260200183838082843782019150505050505091905050610a06565b604051808215151515815260200191505060405180910390f35b341561057557600080fd5b610595600480803567ffffffffffffffff16906020019091905050610b1d565b6040518082815260200191505060405180910390f35b34156105b657600080fd5b61066f600480803567ffffffffffffffff1690602001909190803567ffffffffffffffff1690602001909190803590602001908201803590602001908080601f0160208091040260200160405190810160405280939291908181526020018383808284378201915050505050509190803590602001908201803590602001908080601f01602080910402602001604051908101604052809392919081815260200183838082843782019150505050505091905050610db1565b604051808215151515815260200191505060405180910390f35b60016020528060005260406000206000915090508060000160009054906101000a900467ffffffffffffffff169080600101908060020160009054906101000a900461ffff16908060020160029054906101000a900461ffff169080600301905085565b600081600160008467ffffffffffffffff1667ffffffffffffffff16815260200190815260200160002060000160006101000a81548167ffffffffffffffff021916908367ffffffffffffffff16021790555060019050919050565b60006020528060005260406000206000915090508060000160009054906101000a900467ffffffffffffffff1690806001019080600201905083565b61078d610ed5565b600160008367ffffffffffffffff1667ffffffffffffffff16815260200190815260200160002060040180548060200260200160405190810160405280929190818152602001828054801561084557602002820191906000526020600020906000905b82829054906101000a90046fffffffffffffffffffffffffffffffff166fffffffffffffffffffffffffffffffff1681526020019060100190602082600f010492830192600103820291508084116107f05790505b50505050509050919050565b610859610ee9565b600080836fffffffffffffffffffffffffffffffff168152602001908152602001600020606060405190810160405290816000820160009054906101000a900467ffffffffffffffff1667ffffffffffffffff1667ffffffffffffffff168152602001600182018054600181600116156101000203166002900480601f0160208091040260200160405190810160405280929190818152602001828054600181600116156101000203166002900480156109545780601f1061092957610100808354040283529160200191610954565b820191906000526020600020905b81548152906001019060200180831161093757829003601f168201915b50505050508152602001600282018054600181600116156101000203166002900480601f0160208091040260200160405190810160405280929190818152602001828054600181600116156101000203166002900480156109f65780601f106109cb576101008083540402835291602001916109f6565b820191906000526020600020905b8154815290600101906020018083116109d957829003601f168201915b5050505050815250509050919050565b600084600160008867ffffffffffffffff1667ffffffffffffffff1681526020019081526020016000206001019080519060200190610a46929190610f21565b5083600160008867ffffffffffffffff1667ffffffffffffffff16815260200190815260200160002060020160006101000a81548161ffff021916908361ffff16021790555082600160008867ffffffffffffffff1667ffffffffffffffff16815260200190815260200160002060020160026101000a81548161ffff021916908361ffff16021790555081600160008867ffffffffffffffff1667ffffffffffffffff1681526020019081526020016000206003019080519060200190610b0f929190610f21565b506001905095945050505050565b610b25610fa1565b600160008367ffffffffffffffff1667ffffffffffffffff16815260200190815260200160002060c060405190810160405290816000820160009054906101000a900467ffffffffffffffff1667ffffffffffffffff1667ffffffffffffffff168152602001600182018054600181600116156101000203166002900480601f016020809104026020016040519081016040528092919081815260200182805460018160011615610100020316600290048015610c235780601f10610bf857610100808354040283529160200191610c23565b820191906000526020600020905b815481529060010190602001808311610c0657829003601f168201915b505050505081526020016002820160009054906101000a900461ffff1661ffff1661ffff1681526020016002820160029054906101000a900461ffff1661ffff1661ffff168152602001600382018054600181600116156101000203166002900480601f016020809104026020016040519081016040528092919081815260200182805460018160011615610100020316600290048015610d055780601f10610cda57610100808354040283529160200191610d05565b820191906000526020600020905b815481529060010190602001808311610ce857829003601f168201915b5050505050815260200160048201805480602002602001604051908101604052809291908181526020018280548015610da157602002820191906000526020600020906000905b82829054906101000a90046fffffffffffffffffffffffffffffffff166fffffffffffffffffffffffffffffffff1681526020019060100190602082600f01049283019260010382029150808411610d4c5790505b5050505050815250509050919050565b60008084860167ffffffffffffffff16905083600080836fffffffffffffffffffffffffffffffff1681526020019081526020016000206001019080519060200190610dfe929190610f21565b5082600080836fffffffffffffffffffffffffffffffff1681526020019081526020016000206002019080519060200190610e3a929190610f21565b50600160008767ffffffffffffffff1667ffffffffffffffff1681526020019081526020016000206004018054806001018281610e779190610ffc565b916000526020600020906002918282040191900660100283909190916101000a8154816fffffffffffffffffffffffffffffffff02191690836fffffffffffffffffffffffffffffffff160217905550506001915050949350505050565b602060405190810160405280600081525090565b606060405190810160405280600067ffffffffffffffff168152602001610f0e611036565b8152602001610f1b611036565b81525090565b828054600181600116156101000203166002900490600052602060002090601f016020900481019282601f10610f6257805160ff1916838001178555610f90565b82800160010185558215610f90579182015b82811115610f8f578251825591602001919060010190610f74565b5b509050610f9d919061104a565b5090565b60c060405190810160405280600067ffffffffffffffff168152602001610fc6611036565b8152602001600061ffff168152602001600061ffff168152602001610fe9611036565b8152602001610ff661106f565b81525090565b815481835581811511611031576001016002900481600101600290048360005260206000209182019101611030919061104a565b5b505050565b602060405190810160405280600081525090565b61106c91905b80821115611068576000816000905550600101611050565b5090565b90565b6020604051908101604052806000815250905600a165627a7a72305820bd669a9f78476ec6806763dd354cf7bee72f4bbe23f62d840118b3fbc93844820029",
  "source": "pragma solidity ^0.4.4;\r\n\r\ncontract CareRecord{\r\n    \r\n    \r\n    struct Record{\r\n        uint64 uid;\r\n        string datetime;\r\n        string disease;\r\n\r\n    }\r\n    mapping(uint256 => Record) public records;\r\n    struct Patient{\r\n        uint64 uid;\r\n        string birthdate;\r\n        uint16 height;\r\n        uint16 weight;\r\n        string btype; \r\n        uint128[] recindex;\r\n    }\r\n    mapping(uint64 => Patient) public patients;\r\n    function createPatient(uint64 uid )public returns (bool){\r\n        \r\n        patients[uid].uid= uid;\r\n        return true;\r\n    }\r\n    function updatePatient(uint64 uid,string birthdate,uint16 height,uint16 weight,string btype)public returns(bool){\r\n        \r\n        patients[uid].birthdate = birthdate;\r\n        patients[uid].height = height;\r\n        patients[uid].weight = weight;\r\n        patients[uid].btype = btype;\r\n        return true;\r\n    }\r\n    function createRecord(uint64 uid,uint64 rid,string datetime,string disease)public returns (bool){\r\n        \r\n        uint128 realrid = uid+rid;\r\n        records[realrid].datetime = datetime;\r\n        records[realrid].disease = disease;\r\n        patients[uid].recindex.push(realrid);\r\n        return true;       \r\n    }  \r\n    function getpatient(uint64 uid )public constant returns (Patient){\r\n       return patients[uid];\r\n       \r\n    }\r\n    function getrecords(uint64 uid )public constant returns (uint128[]){\r\n    \r\n       return patients[uid].recindex;\r\n       \r\n    }\r\n    function getrecords(uint128 rid )public constant returns (Record){\r\n            return records[rid];\r\n       \r\n       \r\n    }\r\n\r\n    function CareRecord(string _greeting) public {\r\n       return;\r\n    }\r\n}",
  "sourcePath": "N:\\KISS\\Hackathons\\Carecoin\\contracts\\CareRecord.sol",
  "compiler": {
    "name": "solc",
    "version": "0.4.18+commit.9cf6e910.Emscripten.clang"
  },
  "schemaVersion": "1.0.1",
  "updatedAt": "2017-11-26T04:20:36.273Z"
}